{
  "contractName": "Token",
  "abi": [
    {
      "inputs": [
        {
          "internalType": "uint256",
          "name": "amount",
          "type": "uint256"
        }
      ],
      "stateMutability": "nonpayable",
      "type": "constructor"
    },
    {
      "anonymous": false,
      "inputs": [
        {
          "indexed": true,
          "internalType": "address",
          "name": "owner",
          "type": "address"
        },
        {
          "indexed": true,
          "internalType": "address",
          "name": "spender",
          "type": "address"
        },
        {
          "indexed": false,
          "internalType": "uint256",
          "name": "value",
          "type": "uint256"
        }
      ],
      "name": "Approval",
      "type": "event"
    },
    {
      "anonymous": false,
      "inputs": [
        {
          "indexed": true,
          "internalType": "address",
          "name": "from",
          "type": "address"
        },
        {
          "indexed": true,
          "internalType": "address",
          "name": "to",
          "type": "address"
        },
        {
          "indexed": false,
          "internalType": "uint256",
          "name": "value",
          "type": "uint256"
        }
      ],
      "name": "Transfer",
      "type": "event"
    },
    {
      "inputs": [
        {
          "internalType": "address",
          "name": "owner",
          "type": "address"
        },
        {
          "internalType": "address",
          "name": "spender",
          "type": "address"
        }
      ],
      "name": "allowance",
      "outputs": [
        {
          "internalType": "uint256",
          "name": "",
          "type": "uint256"
        }
      ],
      "stateMutability": "view",
      "type": "function",
      "constant": true
    },
    {
      "inputs": [
        {
          "internalType": "address",
          "name": "spender",
          "type": "address"
        },
        {
          "internalType": "uint256",
          "name": "amount",
          "type": "uint256"
        }
      ],
      "name": "approve",
      "outputs": [
        {
          "internalType": "bool",
          "name": "",
          "type": "bool"
        }
      ],
      "stateMutability": "nonpayable",
      "type": "function"
    },
    {
      "inputs": [
        {
          "internalType": "address",
          "name": "account",
          "type": "address"
        }
      ],
      "name": "balanceOf",
      "outputs": [
        {
          "internalType": "uint256",
          "name": "",
          "type": "uint256"
        }
      ],
      "stateMutability": "view",
      "type": "function",
      "constant": true
    },
    {
      "inputs": [],
      "name": "decimals",
      "outputs": [
        {
          "internalType": "uint8",
          "name": "",
          "type": "uint8"
        }
      ],
      "stateMutability": "view",
      "type": "function",
      "constant": true
    },
    {
      "inputs": [
        {
          "internalType": "address",
          "name": "spender",
          "type": "address"
        },
        {
          "internalType": "uint256",
          "name": "subtractedValue",
          "type": "uint256"
        }
      ],
      "name": "decreaseAllowance",
      "outputs": [
        {
          "internalType": "bool",
          "name": "",
          "type": "bool"
        }
      ],
      "stateMutability": "nonpayable",
      "type": "function"
    },
    {
      "inputs": [
        {
          "internalType": "address",
          "name": "spender",
          "type": "address"
        },
        {
          "internalType": "uint256",
          "name": "addedValue",
          "type": "uint256"
        }
      ],
      "name": "increaseAllowance",
      "outputs": [
        {
          "internalType": "bool",
          "name": "",
          "type": "bool"
        }
      ],
      "stateMutability": "nonpayable",
      "type": "function"
    },
    {
      "inputs": [],
      "name": "name",
      "outputs": [
        {
          "internalType": "string",
          "name": "",
          "type": "string"
        }
      ],
      "stateMutability": "view",
      "type": "function",
      "constant": true
    },
    {
      "inputs": [],
      "name": "owner",
      "outputs": [
        {
          "internalType": "address",
          "name": "",
          "type": "address"
        }
      ],
      "stateMutability": "view",
      "type": "function",
      "constant": true
    },
    {
      "inputs": [],
      "name": "symbol",
      "outputs": [
        {
          "internalType": "string",
          "name": "",
          "type": "string"
        }
      ],
      "stateMutability": "view",
      "type": "function",
      "constant": true
    },
    {
      "inputs": [],
      "name": "totalSupply",
      "outputs": [
        {
          "internalType": "uint256",
          "name": "",
          "type": "uint256"
        }
      ],
      "stateMutability": "view",
      "type": "function",
      "constant": true
    },
    {
      "inputs": [
        {
          "internalType": "address",
          "name": "to",
          "type": "address"
        },
        {
          "internalType": "uint256",
          "name": "amount",
          "type": "uint256"
        }
      ],
      "name": "transfer",
      "outputs": [
        {
          "internalType": "bool",
          "name": "",
          "type": "bool"
        }
      ],
      "stateMutability": "nonpayable",
      "type": "function"
    },
    {
      "inputs": [
        {
          "internalType": "address",
          "name": "from",
          "type": "address"
        },
        {
          "internalType": "address",
          "name": "to",
          "type": "address"
        },
        {
          "internalType": "uint256",
          "name": "amount",
          "type": "uint256"
        }
      ],
      "name": "transferFrom",
      "outputs": [
        {
          "internalType": "bool",
          "name": "",
          "type": "bool"
        }
      ],
      "stateMutability": "nonpayable",
      "type": "function"
    },
    {
      "inputs": [
        {
          "internalType": "uint256",
          "name": "amount",
          "type": "uint256"
        }
      ],
      "name": "burn",
      "outputs": [],
      "stateMutability": "nonpayable",
      "type": "function"
    }
  ],
  "bytecode": "0x60806040523480156200001157600080fd5b5060405162001dba38038062001dba8339818101604052810190620000379190620002fc565b6040518060400160405280601581526020017f6c6570726f6772616d6d6575726d61726f6361696e00000000000000000000008152506040518060400160405280600481526020017f6c70726d000000000000000000000000000000000000000000000000000000008152508160039081620000b491906200059e565b508060049081620000c691906200059e565b50505033600560006101000a81548173ffffffffffffffffffffffffffffffffffffffff021916908373ffffffffffffffffffffffffffffffffffffffff1602179055506200013e600560009054906101000a900473ffffffffffffffffffffffffffffffffffffffff16826200014560201b60201c565b50620007a0565b600073ffffffffffffffffffffffffffffffffffffffff168273ffffffffffffffffffffffffffffffffffffffff1603620001b7576040517f08c379a0000000000000000000000000000000000000000000000000000000008152600401620001ae90620006e6565b60405180910390fd5b620001cb60008383620002b260201b60201c565b8060026000828254620001df919062000737565b92505081905550806000808473ffffffffffffffffffffffffffffffffffffffff1673ffffffffffffffffffffffffffffffffffffffff168152602001908152602001600020600082825401925050819055508173ffffffffffffffffffffffffffffffffffffffff16600073ffffffffffffffffffffffffffffffffffffffff167fddf252ad1be2c89b69c2b068fc378daa952ba7f163c4a11628f55a4df523b3ef8360405162000292919062000783565b60405180910390a3620002ae60008383620002b760201b60201c565b5050565b505050565b505050565b600080fd5b6000819050919050565b620002d681620002c1565b8114620002e257600080fd5b50565b600081519050620002f681620002cb565b92915050565b600060208284031215620003155762000314620002bc565b5b60006200032584828501620002e5565b91505092915050565b600081519050919050565b7f4e487b7100000000000000000000000000000000000000000000000000000000600052604160045260246000fd5b7f4e487b7100000000000000000000000000000000000000000000000000000000600052602260045260246000fd5b60006002820490506001821680620003b057607f821691505b602082108103620003c657620003c562000368565b5b50919050565b60008190508160005260206000209050919050565b60006020601f8301049050919050565b600082821b905092915050565b600060088302620004307fffffffffffffffffffffffffffffffffffffffffffffffffffffffffffffffff82620003f1565b6200043c8683620003f1565b95508019841693508086168417925050509392505050565b6000819050919050565b60006200047f620004796200047384620002c1565b62000454565b620002c1565b9050919050565b6000819050919050565b6200049b836200045e565b620004b3620004aa8262000486565b848454620003fe565b825550505050565b600090565b620004ca620004bb565b620004d781848462000490565b505050565b5b81811015620004ff57620004f3600082620004c0565b600181019050620004dd565b5050565b601f8211156200054e576200051881620003cc565b6200052384620003e1565b8101602085101562000533578190505b6200054b6200054285620003e1565b830182620004dc565b50505b505050565b600082821c905092915050565b6000620005736000198460080262000553565b1980831691505092915050565b60006200058e838362000560565b9150826002028217905092915050565b620005a9826200032e565b67ffffffffffffffff811115620005c557620005c462000339565b5b620005d1825462000397565b620005de82828562000503565b600060209050601f83116001811462000616576000841562000601578287015190505b6200060d858262000580565b8655506200067d565b601f1984166200062686620003cc565b60005b82811015620006505784890151825560018201915060208501945060208101905062000629565b868310156200067057848901516200066c601f89168262000560565b8355505b6001600288020188555050505b505050505050565b600082825260208201905092915050565b7f45524332303a206d696e7420746f20746865207a65726f206164647265737300600082015250565b6000620006ce601f8362000685565b9150620006db8262000696565b602082019050919050565b600060208201905081810360008301526200070181620006bf565b9050919050565b7f4e487b7100000000000000000000000000000000000000000000000000000000600052601160045260246000fd5b60006200074482620002c1565b91506200075183620002c1565b92508282019050808211156200076c576200076b62000708565b5b92915050565b6200077d81620002c1565b82525050565b60006020820190506200079a600083018462000772565b92915050565b61160a80620007b06000396000f3fe608060405234801561001057600080fd5b50600436106100cf5760003560e01c806342966c681161008c57806395d89b411161006657806395d89b4114610228578063a457c2d714610246578063a9059cbb14610276578063dd62ed3e146102a6576100cf565b806342966c68146101be57806370a08231146101da5780638da5cb5b1461020a576100cf565b806306fdde03146100d4578063095ea7b3146100f257806318160ddd1461012257806323b872dd14610140578063313ce56714610170578063395093511461018e575b600080fd5b6100dc6102d6565b6040516100e99190610d6c565b60405180910390f35b61010c60048036038101906101079190610e27565b610368565b6040516101199190610e82565b60405180910390f35b61012a61038b565b6040516101379190610eac565b60405180910390f35b61015a60048036038101906101559190610ec7565b610395565b6040516101679190610e82565b60405180910390f35b6101786103c4565b6040516101859190610f36565b60405180910390f35b6101a860048036038101906101a39190610e27565b6103cd565b6040516101b59190610e82565b60405180910390f35b6101d860048036038101906101d39190610f51565b610404565b005b6101f460048036038101906101ef9190610f7e565b610411565b6040516102019190610eac565b60405180910390f35b610212610459565b60405161021f9190610fba565b60405180910390f35b61023061047f565b60405161023d9190610d6c565b60405180910390f35b610260600480360381019061025b9190610e27565b610511565b60405161026d9190610e82565b60405180910390f35b610290600480360381019061028b9190610e27565b610588565b60405161029d9190610e82565b60405180910390f35b6102c060048036038101906102bb9190610fd5565b6105ab565b6040516102cd9190610eac565b60405180910390f35b6060600380546102e590611044565b80601f016020809104026020016040519081016040528092919081815260200182805461031190611044565b801561035e5780601f106103335761010080835404028352916020019161035e565b820191906000526020600020905b81548152906001019060200180831161034157829003601f168201915b5050505050905090565b600080610373610632565b905061038081858561063a565b600191505092915050565b6000600254905090565b6000806103a0610632565b90506103ad858285610803565b6103b885858561088f565b60019150509392505050565b60006012905090565b6000806103d8610632565b90506103f98185856103ea85896105ab565b6103f491906110a4565b61063a565b600191505092915050565b61040e3382610b05565b50565b60008060008373ffffffffffffffffffffffffffffffffffffffff1673ffffffffffffffffffffffffffffffffffffffff168152602001908152602001600020549050919050565b600560009054906101000a900473ffffffffffffffffffffffffffffffffffffffff1681565b60606004805461048e90611044565b80601f01602080910402602001604051908101604052809291908181526020018280546104ba90611044565b80156105075780601f106104dc57610100808354040283529160200191610507565b820191906000526020600020905b8154815290600101906020018083116104ea57829003601f168201915b5050505050905090565b60008061051c610632565b9050600061052a82866105ab565b90508381101561056f576040517f08c379a00000000000000000000000000000000000000000000000000000000081526004016105669061114a565b60405180910390fd5b61057c828686840361063a565b60019250505092915050565b600080610593610632565b90506105a081858561088f565b600191505092915050565b6000600160008473ffffffffffffffffffffffffffffffffffffffff1673ffffffffffffffffffffffffffffffffffffffff16815260200190815260200160002060008373ffffffffffffffffffffffffffffffffffffffff1673ffffffffffffffffffffffffffffffffffffffff16815260200190815260200160002054905092915050565b600033905090565b600073ffffffffffffffffffffffffffffffffffffffff168373ffffffffffffffffffffffffffffffffffffffff16036106a9576040517f08c379a00000000000000000000000000000000000000000000000000000000081526004016106a0906111dc565b60405180910390fd5b600073ffffffffffffffffffffffffffffffffffffffff168273ffffffffffffffffffffffffffffffffffffffff1603610718576040517f08c379a000000000000000000000000000000000000000000000000000000000815260040161070f9061126e565b60405180910390fd5b80600160008573ffffffffffffffffffffffffffffffffffffffff1673ffffffffffffffffffffffffffffffffffffffff16815260200190815260200160002060008473ffffffffffffffffffffffffffffffffffffffff1673ffffffffffffffffffffffffffffffffffffffff168152602001908152602001600020819055508173ffffffffffffffffffffffffffffffffffffffff168373ffffffffffffffffffffffffffffffffffffffff167f8c5be1e5ebec7d5bd14f71427d1e84f3dd0314c0f7b2291e5b200ac8c7c3b925836040516107f69190610eac565b60405180910390a3505050565b600061080f84846105ab565b90507fffffffffffffffffffffffffffffffffffffffffffffffffffffffffffffffff8114610889578181101561087b576040517f08c379a0000000000000000000000000000000000000000000000000000000008152600401610872906112da565b60405180910390fd5b610888848484840361063a565b5b50505050565b600073ffffffffffffffffffffffffffffffffffffffff168373ffffffffffffffffffffffffffffffffffffffff16036108fe576040517f08c379a00000000000000000000000000000000000000000000000000000000081526004016108f59061136c565b60405180910390fd5b600073ffffffffffffffffffffffffffffffffffffffff168273ffffffffffffffffffffffffffffffffffffffff160361096d576040517f08c379a0000000000000000000000000000000000000000000000000000000008152600401610964906113fe565b60405180910390fd5b610978838383610cd2565b60008060008573ffffffffffffffffffffffffffffffffffffffff1673ffffffffffffffffffffffffffffffffffffffff168152602001908152602001600020549050818110156109fe576040517f08c379a00000000000000000000000000000000000000000000000000000000081526004016109f590611490565b60405180910390fd5b8181036000808673ffffffffffffffffffffffffffffffffffffffff1673ffffffffffffffffffffffffffffffffffffffff16815260200190815260200160002081905550816000808573ffffffffffffffffffffffffffffffffffffffff1673ffffffffffffffffffffffffffffffffffffffff168152602001908152602001600020600082825401925050819055508273ffffffffffffffffffffffffffffffffffffffff168473ffffffffffffffffffffffffffffffffffffffff167fddf252ad1be2c89b69c2b068fc378daa952ba7f163c4a11628f55a4df523b3ef84604051610aec9190610eac565b60405180910390a3610aff848484610cd7565b50505050565b600073ffffffffffffffffffffffffffffffffffffffff168273ffffffffffffffffffffffffffffffffffffffff1603610b74576040517f08c379a0000000000000000000000000000000000000000000000000000000008152600401610b6b90611522565b60405180910390fd5b610b8082600083610cd2565b60008060008473ffffffffffffffffffffffffffffffffffffffff1673ffffffffffffffffffffffffffffffffffffffff16815260200190815260200160002054905081811015610c06576040517f08c379a0000000000000000000000000000000000000000000000000000000008152600401610bfd906115b4565b60405180910390fd5b8181036000808573ffffffffffffffffffffffffffffffffffffffff1673ffffffffffffffffffffffffffffffffffffffff1681526020019081526020016000208190555081600260008282540392505081905550600073ffffffffffffffffffffffffffffffffffffffff168373ffffffffffffffffffffffffffffffffffffffff167fddf252ad1be2c89b69c2b068fc378daa952ba7f163c4a11628f55a4df523b3ef84604051610cb99190610eac565b60405180910390a3610ccd83600084610cd7565b505050565b505050565b505050565b600081519050919050565b600082825260208201905092915050565b60005b83811015610d16578082015181840152602081019050610cfb565b60008484015250505050565b6000601f19601f8301169050919050565b6000610d3e82610cdc565b610d488185610ce7565b9350610d58818560208601610cf8565b610d6181610d22565b840191505092915050565b60006020820190508181036000830152610d868184610d33565b905092915050565b600080fd5b600073ffffffffffffffffffffffffffffffffffffffff82169050919050565b6000610dbe82610d93565b9050919050565b610dce81610db3565b8114610dd957600080fd5b50565b600081359050610deb81610dc5565b92915050565b6000819050919050565b610e0481610df1565b8114610e0f57600080fd5b50565b600081359050610e2181610dfb565b92915050565b60008060408385031215610e3e57610e3d610d8e565b5b6000610e4c85828601610ddc565b9250506020610e5d85828601610e12565b9150509250929050565b60008115159050919050565b610e7c81610e67565b82525050565b6000602082019050610e976000830184610e73565b92915050565b610ea681610df1565b82525050565b6000602082019050610ec16000830184610e9d565b92915050565b600080600060608486031215610ee057610edf610d8e565b5b6000610eee86828701610ddc565b9350506020610eff86828701610ddc565b9250506040610f1086828701610e12565b9150509250925092565b600060ff82169050919050565b610f3081610f1a565b82525050565b6000602082019050610f4b6000830184610f27565b92915050565b600060208284031215610f6757610f66610d8e565b5b6000610f7584828501610e12565b91505092915050565b600060208284031215610f9457610f93610d8e565b5b6000610fa284828501610ddc565b91505092915050565b610fb481610db3565b82525050565b6000602082019050610fcf6000830184610fab565b92915050565b60008060408385031215610fec57610feb610d8e565b5b6000610ffa85828601610ddc565b925050602061100b85828601610ddc565b9150509250929050565b7f4e487b7100000000000000000000000000000000000000000000000000000000600052602260045260246000fd5b6000600282049050600182168061105c57607f821691505b60208210810361106f5761106e611015565b5b50919050565b7f4e487b7100000000000000000000000000000000000000000000000000000000600052601160045260246000fd5b60006110af82610df1565b91506110ba83610df1565b92508282019050808211156110d2576110d1611075565b5b92915050565b7f45524332303a2064656372656173656420616c6c6f77616e63652062656c6f7760008201527f207a65726f000000000000000000000000000000000000000000000000000000602082015250565b6000611134602583610ce7565b915061113f826110d8565b604082019050919050565b6000602082019050818103600083015261116381611127565b9050919050565b7f45524332303a20617070726f76652066726f6d20746865207a65726f2061646460008201527f7265737300000000000000000000000000000000000000000000000000000000602082015250565b60006111c6602483610ce7565b91506111d18261116a565b604082019050919050565b600060208201905081810360008301526111f5816111b9565b9050919050565b7f45524332303a20617070726f766520746f20746865207a65726f20616464726560008201527f7373000000000000000000000000000000000000000000000000000000000000602082015250565b6000611258602283610ce7565b9150611263826111fc565b604082019050919050565b600060208201905081810360008301526112878161124b565b9050919050565b7f45524332303a20696e73756666696369656e7420616c6c6f77616e6365000000600082015250565b60006112c4601d83610ce7565b91506112cf8261128e565b602082019050919050565b600060208201905081810360008301526112f3816112b7565b9050919050565b7f45524332303a207472616e736665722066726f6d20746865207a65726f20616460008201527f6472657373000000000000000000000000000000000000000000000000000000602082015250565b6000611356602583610ce7565b9150611361826112fa565b604082019050919050565b6000602082019050818103600083015261138581611349565b9050919050565b7f45524332303a207472616e7366657220746f20746865207a65726f206164647260008201527f6573730000000000000000000000000000000000000000000000000000000000602082015250565b60006113e8602383610ce7565b91506113f38261138c565b604082019050919050565b60006020820190508181036000830152611417816113db565b9050919050565b7f45524332303a207472616e7366657220616d6f756e742065786365656473206260008201527f616c616e63650000000000000000000000000000000000000000000000000000602082015250565b600061147a602683610ce7565b91506114858261141e565b604082019050919050565b600060208201905081810360008301526114a98161146d565b9050919050565b7f45524332303a206275726e2066726f6d20746865207a65726f2061646472657360008201527f7300000000000000000000000000000000000000000000000000000000000000602082015250565b600061150c602183610ce7565b9150611517826114b0565b604082019050919050565b6000602082019050818103600083015261153b816114ff565b9050919050565b7f45524332303a206275726e20616d6f756e7420657863656564732062616c616e60008201527f6365000000000000000000000000000000000000000000000000000000000000602082015250565b600061159e602283610ce7565b91506115a982611542565b604082019050919050565b600060208201905081810360008301526115cd81611591565b905091905056fea26469706673582212205997b00ad284ccde232332a684f6a00bd119335e65b04ba52991c1a323d0bd2964736f6c63430008100033",
  "immutableReferences": {},
  "source": "// SPDX-License-Identifier: MIT\n\npragma solidity >=0.4.22 <0.9.0;\n\nimport \"../node_modules/@openzeppelin/contracts/token/ERC20/ERC20.sol\";\n\n\n\ncontract Token is ERC20 {\n    address public owner;\n    constructor(uint256 amount) ERC20(\"leprogrammeurmarocain\",\"lprm\") {\n        owner = msg.sender;\n        _mint(owner, amount);\n    }\n\n    function burn(uint256 amount) external {\n        _burn(msg.sender, amount);\n    }\n}\n\n",
  "sourcePath": "/home/senyou/leprogrammeurmarocain/contracts/Token.sol",
  "compiler": {
    "name": "solc",
    "version": "0.8.16+commit.07a7930e.Emscripten.clang"
  },
  "schemaVersion": "3.4.9",
  "updatedAt": "2023-01-10T16:38:31.833Z",
  "networkType": "ethereum",
  "devdoc": {
    "kind": "dev",
    "methods": {
      "allowance(address,address)": {
        "details": "See {IERC20-allowance}."
      },
      "approve(address,uint256)": {
        "details": "See {IERC20-approve}. NOTE: If `amount` is the maximum `uint256`, the allowance is not updated on `transferFrom`. This is semantically equivalent to an infinite approval. Requirements: - `spender` cannot be the zero address."
      },
      "balanceOf(address)": {
        "details": "See {IERC20-balanceOf}."
      },
      "decimals()": {
        "details": "Returns the number of decimals used to get its user representation. For example, if `decimals` equals `2`, a balance of `505` tokens should be displayed to a user as `5.05` (`505 / 10 ** 2`). Tokens usually opt for a value of 18, imitating the relationship between Ether and Wei. This is the value {ERC20} uses, unless this function is overridden; NOTE: This information is only used for _display_ purposes: it in no way affects any of the arithmetic of the contract, including {IERC20-balanceOf} and {IERC20-transfer}."
      },
      "decreaseAllowance(address,uint256)": {
        "details": "Atomically decreases the allowance granted to `spender` by the caller. This is an alternative to {approve} that can be used as a mitigation for problems described in {IERC20-approve}. Emits an {Approval} event indicating the updated allowance. Requirements: - `spender` cannot be the zero address. - `spender` must have allowance for the caller of at least `subtractedValue`."
      },
      "increaseAllowance(address,uint256)": {
        "details": "Atomically increases the allowance granted to `spender` by the caller. This is an alternative to {approve} that can be used as a mitigation for problems described in {IERC20-approve}. Emits an {Approval} event indicating the updated allowance. Requirements: - `spender` cannot be the zero address."
      },
      "name()": {
        "details": "Returns the name of the token."
      },
      "symbol()": {
        "details": "Returns the symbol of the token, usually a shorter version of the name."
      },
      "totalSupply()": {
        "details": "See {IERC20-totalSupply}."
      },
      "transfer(address,uint256)": {
        "details": "See {IERC20-transfer}. Requirements: - `to` cannot be the zero address. - the caller must have a balance of at least `amount`."
      },
      "transferFrom(address,address,uint256)": {
        "details": "See {IERC20-transferFrom}. Emits an {Approval} event indicating the updated allowance. This is not required by the EIP. See the note at the beginning of {ERC20}. NOTE: Does not update the allowance if the current allowance is the maximum `uint256`. Requirements: - `from` and `to` cannot be the zero address. - `from` must have a balance of at least `amount`. - the caller must have allowance for ``from``'s tokens of at least `amount`."
      }
    },
    "version": 1
  },
  "userdoc": {
    "kind": "user",
    "methods": {},
    "version": 1
  }
}